{
  "_format": "hh-sol-artifact-1",
  "contractName": "Staking",
  "sourceName": "contracts/Staking.sol",
  "abi": [
    {
      "inputs": [
        {
          "internalType": "address",
          "name": "stakingToken",
          "type": "address"
        },
        {
          "internalType": "address",
          "name": "rewardToken",
          "type": "address"
        }
      ],
      "stateMutability": "nonpayable",
      "type": "constructor"
    },
    {
      "inputs": [],
      "name": "NeedsMoreThanZero",
      "type": "error"
    },
    {
      "inputs": [],
      "name": "TransferFailed",
      "type": "error"
    },
    {
      "anonymous": false,
      "inputs": [
        {
          "indexed": true,
          "internalType": "address",
          "name": "user",
          "type": "address"
        },
        {
          "indexed": true,
          "internalType": "uint256",
          "name": "amount",
          "type": "uint256"
        }
      ],
      "name": "RewardsClaimed",
      "type": "event"
    },
    {
      "anonymous": false,
      "inputs": [
        {
          "indexed": true,
          "internalType": "address",
          "name": "user",
          "type": "address"
        },
        {
          "indexed": true,
          "internalType": "uint256",
          "name": "amount",
          "type": "uint256"
        }
      ],
      "name": "Staked",
      "type": "event"
    },
    {
      "anonymous": false,
      "inputs": [
        {
          "indexed": true,
          "internalType": "address",
          "name": "user",
          "type": "address"
        },
        {
          "indexed": true,
          "internalType": "uint256",
          "name": "amount",
          "type": "uint256"
        }
      ],
      "name": "WithdrewStake",
      "type": "event"
    },
    {
      "inputs": [],
      "name": "REWARD_RATE",
      "outputs": [
        {
          "internalType": "uint256",
          "name": "",
          "type": "uint256"
        }
      ],
      "stateMutability": "view",
      "type": "function"
    },
    {
      "inputs": [],
      "name": "claimReward",
      "outputs": [],
      "stateMutability": "nonpayable",
      "type": "function"
    },
    {
      "inputs": [
        {
          "internalType": "address",
          "name": "account",
          "type": "address"
        }
      ],
      "name": "earned",
      "outputs": [
        {
          "internalType": "uint256",
          "name": "",
          "type": "uint256"
        }
      ],
      "stateMutability": "view",
      "type": "function"
    },
    {
      "inputs": [
        {
          "internalType": "address",
          "name": "account",
          "type": "address"
        }
      ],
      "name": "getStaked",
      "outputs": [
        {
          "internalType": "uint256",
          "name": "",
          "type": "uint256"
        }
      ],
      "stateMutability": "view",
      "type": "function"
    },
    {
      "inputs": [],
      "name": "rewardPerToken",
      "outputs": [
        {
          "internalType": "uint256",
          "name": "",
          "type": "uint256"
        }
      ],
      "stateMutability": "view",
      "type": "function"
    },
    {
      "inputs": [
        {
          "internalType": "address",
          "name": "",
          "type": "address"
        }
      ],
      "name": "s_balances",
      "outputs": [
        {
          "internalType": "uint256",
          "name": "",
          "type": "uint256"
        }
      ],
      "stateMutability": "view",
      "type": "function"
    },
    {
      "inputs": [],
      "name": "s_lastUpdateTime",
      "outputs": [
        {
          "internalType": "uint256",
          "name": "",
          "type": "uint256"
        }
      ],
      "stateMutability": "view",
      "type": "function"
    },
    {
      "inputs": [],
      "name": "s_rewardPerTokenStored",
      "outputs": [
        {
          "internalType": "uint256",
          "name": "",
          "type": "uint256"
        }
      ],
      "stateMutability": "view",
      "type": "function"
    },
    {
      "inputs": [
        {
          "internalType": "address",
          "name": "",
          "type": "address"
        }
      ],
      "name": "s_rewards",
      "outputs": [
        {
          "internalType": "uint256",
          "name": "",
          "type": "uint256"
        }
      ],
      "stateMutability": "view",
      "type": "function"
    },
    {
      "inputs": [],
      "name": "s_rewardsToken",
      "outputs": [
        {
          "internalType": "contract IERC20",
          "name": "",
          "type": "address"
        }
      ],
      "stateMutability": "view",
      "type": "function"
    },
    {
      "inputs": [],
      "name": "s_stakingToken",
      "outputs": [
        {
          "internalType": "contract IERC20",
          "name": "",
          "type": "address"
        }
      ],
      "stateMutability": "view",
      "type": "function"
    },
    {
      "inputs": [
        {
          "internalType": "address",
          "name": "",
          "type": "address"
        }
      ],
      "name": "s_userRewardPerTokenPaid",
      "outputs": [
        {
          "internalType": "uint256",
          "name": "",
          "type": "uint256"
        }
      ],
      "stateMutability": "view",
      "type": "function"
    },
    {
      "inputs": [
        {
          "internalType": "uint256",
          "name": "amount",
          "type": "uint256"
        }
      ],
      "name": "stake",
      "outputs": [],
      "stateMutability": "nonpayable",
      "type": "function"
    },
    {
      "inputs": [
        {
          "internalType": "uint256",
          "name": "amount",
          "type": "uint256"
        }
      ],
      "name": "withdraw",
      "outputs": [],
      "stateMutability": "nonpayable",
      "type": "function"
    }
  ],
  "bytecode": "0x608060405234801561001057600080fd5b5060405161095338038061095383398101604081905261002f91610081565b6001600081905580546001600160a01b039384166001600160a01b031991821617909155600280549290931691161790556100b4565b80516001600160a01b038116811461007c57600080fd5b919050565b6000806040838503121561009457600080fd5b61009d83610065565b91506100ab60208401610065565b90509250929050565b610890806100c36000396000f3fe608060405234801561001057600080fd5b50600436106100e95760003560e01c8063a694fc3a1161008c578063b88a802f11610066578063b88a802f146101dd578063bea08151146101e5578063cd3daf9d14610205578063f245ace41461020d57600080fd5b8063a694fc3a14610197578063ab32eb69146101aa578063adca9b72146101ca57600080fd5b8063304ac91b116100c8578063304ac91b14610154578063399080ec1461015d5780635997bb37146101865780636aa0838f1461018e57600080fd5b80628cc262146100ee5780630bd21c56146101145780632e1a7d4d1461013f575b600080fd5b6101016100fc366004610769565b61022d565b6040519081526020015b60405180910390f35b600254610127906001600160a01b031681565b6040516001600160a01b03909116815260200161010b565b61015261014d366004610799565b6102aa565b005b61010160045481565b61010161016b366004610769565b6001600160a01b031660009081526008602052604090205490565b610101606481565b61010160035481565b6101526101a5366004610799565b610415565b6101016101b8366004610769565b60086020526000908152604090205481565b600154610127906001600160a01b031681565b610152610576565b6101016101f3366004610769565b60066020526000908152604090205481565b6101016106ac565b61010161021b366004610769565b60056020526000908152604090205481565b6001600160a01b0381166000908152600660209081526040808320546005909252822054670de0b6b3a7640000906102636106ac565b61026d91906107c8565b6001600160a01b03851660009081526008602052604090205461029091906107df565b61029a91906107fe565b6102a49190610820565b92915050565b6102b261070b565b336102bb6106ac565b600455426003556102cb8161022d565b6001600160a01b0382166000908152600660209081526040808320939093556004546005909152918120919091556007805484929061030b9084906107c8565b9091555050336000908152600860205260408120805484929061032f9084906107c8565b9091555050604051829033907f4cb6da433ea55f6e302b7bdbfeed740816a42301cde7f5bac5dff2b34037637490600090a360015460405163a9059cbb60e01b8152336004820152602481018490526000916001600160a01b03169063a9059cbb90604401602060405180830381600087803b1580156103ae57600080fd5b505af11580156103c2573d6000803e3d6000fd5b505050506040513d601f19601f820116820180604052508101906103e69190610838565b905080610406576040516312171d8360e31b815260040160405180910390fd5b50506104126001600055565b50565b3361041e6106ac565b6004554260035561042e8161022d565b6001600160a01b03821660009081526006602090815260408083209390935560045460059091529190205561046161070b565b818061048057604051630f45911f60e41b815260040160405180910390fd5b82600760008282546104929190610820565b909155505033600090815260086020526040812080548592906104b6908490610820565b90915550506001546040516323b872dd60e01b8152336004820152306024820152604481018590526000916001600160a01b0316906323b872dd90606401602060405180830381600087803b15801561050e57600080fd5b505af1158015610522573d6000803e3d6000fd5b505050506040513d601f19601f820116820180604052508101906105469190610838565b905080610566576040516312171d8360e31b815260040160405180910390fd5b50506105726001600055565b5050565b61057e61070b565b336105876106ac565b600455426003556105978161022d565b6001600160a01b038216600090815260066020818152604080842094909455600454600582528484205533808452919052828220805490839055925183927ffc30cddea38e2bf4d6ea7d3f9ed3b6ad7f176419f4963bd81318067a4aee73fe91a360015460405163a9059cbb60e01b8152336004820152602481018390526000916001600160a01b03169063a9059cbb90604401602060405180830381600087803b15801561064557600080fd5b505af1158015610659573d6000803e3d6000fd5b505050506040513d601f19601f8201168201806040525081019061067d9190610838565b90508061069d576040516312171d8360e31b815260040160405180910390fd5b5050506106aa6001600055565b565b6000600754600014156106c0575060045490565b6007546064600354426106d391906107c8565b6106dd91906107df565b6106ef90670de0b6b3a76400006107df565b6106f991906107fe565b6004546107069190610820565b905090565b600260005414156107625760405162461bcd60e51b815260206004820152601f60248201527f5265656e7472616e637947756172643a207265656e7472616e742063616c6c00604482015260640160405180910390fd5b6002600055565b60006020828403121561077b57600080fd5b81356001600160a01b038116811461079257600080fd5b9392505050565b6000602082840312156107ab57600080fd5b5035919050565b634e487b7160e01b600052601160045260246000fd5b6000828210156107da576107da6107b2565b500390565b60008160001904831182151516156107f9576107f96107b2565b500290565b60008261081b57634e487b7160e01b600052601260045260246000fd5b500490565b60008219821115610833576108336107b2565b500190565b60006020828403121561084a57600080fd5b8151801515811461079257600080fdfea26469706673582212207119d544249e600b8a180ca88bbd241008015841bd040cede207b71bc5b9187d64736f6c63430008090033",
  "linkReferences": {},
  "deployedLinkReferences": {}
}